:020000040000FA
:10000000F4EF0BF030313233343536373839414282
:100010004344454603A6681E7D107E7E5F1CB8F2F1
:10002000470C7B744B148B7566510B8C76744B1498
:10003000AAD60F9CBAF66E3FDD38D502809B826D42
:100040005813A4ABB5C910A2C60A7F5D1991A0A32D
:10005000CEEB3EC9F16042E74CFB746A562EBFDD21
:1000600038D3058892A6CEFF5D38D1CFEF58CB6547
:1000700048F03585A9B28F5EF38094977E75978797
:100080007313B08A69D40ADEC1795936DB9DD6B8BC
:10009000156FCE3C72324588DF6CA56DE8769614FC
:1000A0007420DCF4FA376A2732E329BFC4C7069DFF
:1000B00058E7877C2E9F6E49075D236454836ECB7F
:1000C000B777F72B6E0F2E6612605565FC43B35859
:1000D000735BE867044302DEB389A06D3A27796455
:1000E0005B0C169E66B18B870C5DF2B63D71DF42EC
:1000F000038A068DEF1DA8965CED31615CA134F694
:100100008C08603307003E79951B437FFEB6A6D46A
:100110009D7672BFADC015E83731A37263521D1CC6
:100120005D511BE1A9ED60323EA95028530659E20A
:10013000FCE702643921564AA5408081D55A607B8C
:100140006884F1E0B1B65BDFA81D6D6520C0A2B97F
:10015000D9BB00A6DB8B015391FEC45185B0967FBD
:10016000FD51DD1403672E751C76D36EDD9955762F
:10017000E5AB23FC4AD5C6E82ECA8AB3F68C6CB030
:10018000E9F2E79E6941EDF16DD286D87ECB5D47FD
:100190006C856A23ED204093B420C7A5C9AF031531
:1001A000AC19E52A36DF6DC58C8007CE920CD806D7
:1001B000620FDD48461A53C78A8C5D5DB4A102D335
:1001C000A9B8F3948F3FE554D41165B25E090B8151
:1001D000E375A78981396C46F6069F273BB62D5FEC
:1001E0001D4BD47B1D617489E4E3BD981BC4513B56
:1001F000A4FAE092F7BEF24DBBFFAD4F6D68C27935
:1002000040AA9B8F0C324B5F3EAB5998B3F51DACA7
:100210005EBC78D3016C64152FD871A62D45E12200
:1002200042E44E043C7DF44021B46705A8E2F37239
:10023000874C7DD91B6597F3C2E3E4C8D2DEF6EFA5
:10024000DCBB44085EE2452701B0F643E73AF6DC42
:100250009DEDF3C50CB89C983AD836EE967267E7D8
:100260008191D5050AE082D58FE8F9B0C9CF93E72F
:1002700004C5BC2B43567EE8677CE5FB49AD5E9F19
:100280002513DE6E6EE9F1EC870B5981768476B327
:1002900024AF30FD278BABD8008B9B0CD2B24E5EC7
:1002A0009D1D96010067C15F0220FD456A016058EF
:1002B00045CA4721905AC443261AD7A54AB25D2B96
:1002C0003549FBA51792211E939667A27E367ADEEA
:1002D0005FBE7A589DF878A3FAC8D517F021978C9D
:1002E00080B54B3BBDBB4121A85067F7E719801093
:1002F0008ECE04183F516B77D89E16AFECEF4816A0
:100300004D9E8538183ED42887602AF67F09866F6F
:100310009C3C3AFFABD061A2970D71947EFDB980F1
:1003200002896AB3846C2A7762BE0BF4AFAC7B7C23
:100330008ECA01BA717894FDB539A44D2F78CFCA11
:10034000920C1A99484C1196B54E4128E4A6FE4BE2
:100350007291E7D4DD9F12E62938CE45AE02B8246B
:10036000AEBDE9660862A22C2B00E223D9C448E4A2
:10037000D3ACBB34C7F0E34FB930EAA212F1302C52
:1003800036DE48F2B04C433F2E58E420E358CD31DE
:1003900022F0A22AE619905586F65579D1D7462F34
:1003A000C0DC99E8F36ADF7FEB244A1E5A75DE2F22
:1003B0005C19610353546A3B1870B64FF19C0A599B
:1003C0009D1992658C83142D448A75A9F590D26687
:1003D0004EFA690F5B0B9865C81142597FDD1B759A
:1003E00017314C7558EB58637DF2A6C26EB73F3E8D
:1003F0005E47ADB704E805F8B2CF19F3D285FE3EEB
:100400003EB162082C10070D739017FA9B560275C7
:10041000F951E0E91A7B9FB3F398B81C9CE1D535FC
:10042000AEC860481109946BD08B15BC0568D354D5
:100430008A51395C4276CED8AD8930C9051CCC943E
:100440003F0F906F722D85649AB923F90BC37C39E5
:100450000F970797DA5848330523B882E8D35389B2
:10046000AF338022840C955C67B8770C5CA25F3D4B
:10047000580F27F32FAE48BD0B6F54FB674CEA3281
:1004800027F1FAE2B0EC0B15B470F65CDD7160C3D5
:10049000C1A83265AC7A7741E5A96B1181FA348D38
:1004A000FBC1806EC4603007D48B67BDAA8C9C648E
:1004B000ACDB0B248B636FE6BCE733A44A4CA79FED
:1004C0004353D2BB8F43C73D78683FA53DCA69847B
:1004D000A6972DC07D3134551D07B15F405C93B0A8
:1004E000BC7CB0BCE712EE6B2BD34D67703A9AF22E
:1004F0003C7C81FAD7D9909181B8B1F3486A264FF4
:100500000CCEB09EFD4A3AAFAC5B3FBF445AA31934
:100510001E4BE7366AD720AED77D3BE7FF3A862EE3
:10052000D04A3EAF9F8E01BFF84FC1E86F74E145DE
:10053000D3F7046A4B9DEC332776D7C5E1B03B0E69
:1005400023ECF086D21ABF3D0462B36CB2EB170500
:10055000A60A8A7E831CB63709C60B703CB5938108
:10056000D893A05F1E08E2C6E5C972F1F1C1EDD5CE
:10057000589383F865672E0DA9F16412E64CEA15CD
:100580003F8C1AB6BFF6B9523509B0E6F7CDF1A5E2
:10059000AA81D1816FB4A9661FFC48C0B6D18B0671
:1005A0002FF6EF1F0AE6CE3A4A55BF6DF94DD40833
:1005B000454BC366199210E1178E289116BF3CEE89
:1005C000A3A6999210E1F6CCACB8650B4366F8E3AC
:1005D000E53F2489475D7843D06117BD5B645408CB
:1005E000455993F6958A4151624B51023073C78742
:1005F000C54BA2970FE8465F7E2AE13020B0FAE7AC
:10060000CE6142576E21F37AECE325C725F367A745
:1006100057400002CF1C807767BD70A119923175D9
:10062000932727B682E4EB1D7848E7A55E57EF6471
:1006300028641BF611B2039DB9180227F7BE9D5519
:10064000FC00D2C7AEAD0BC5E9424148D832CFF667
:100650000FF5BC97C6994776BD89060F630C51D438
:100660005EEA48A8A2561C7984864088417655FCEB
:10067000C2D7FDC9C7806135A74320F7EB6C66136D
:10068000B0EC02753E4BAFB95D40DAD66E2D3954F1
:10069000C29535542572E178B8EBC116580F9C9B72
:1006A000B4EA37EC3B11BAD58AA9E39800511C147F
:1006B000E04096E5E9F22122B1236078D317F87A79
:1006C000A5A8BA20D3151E32E45E1548AEA9E5B838
:1006D00033ECE8A242ACBF1084538719B45F764D67
:1006E000019D5674D95C97E788EA3ABFDC4C338A9F
:1006F00016B95BFAD842A7BB3C04277849812A5A2D
:100700007D7C23A8BAF79A9FD2663E383C75F9D112
:100710003026306E5A6EDC6A69325033479EA4A888
:100720006466F08AE4FD276F51258B4374C98EBD42
:100730008831BEEC65D2CB8D5A1348168C610B11F3
:10074000F6C666AEC3CC0CD2E19F82413F56F97328
:10075000EFDC3050CFB67FBCD0B310AB24E4ECADAF
:10076000188C392D304CC5400DF6ACD6185D96BFAF
:100770005F71759622970F02946EA6AE6D8F1ECA9A
:10078000129B2A1CCEA9EEFD128EFCED0933BAF4A1
:100790001A15F69D8716437C7857E144C9EB1F581C
:1007A0004DC149115CB211A85516F1C650E98789AF
:1007B000F6CFD89C51A7BC5B316D4D51D04CBC0DD0
:1007C000582D7B887AF98ED6404DBBBEC4E507FC18
:1007D000D97B6DA642578F02944FE42A65E2195ADD
:1007E00050E125654A60C2CDA8EC052E877B95B700
:1007F0004FA00B1B4A7F92C890EE891E10D285E451
:100800009F63C812BB4EB8CF0AEC184EE67CB333D8
:1008100026C71FD20423EA070C5F90BDA76A0F4AC0
:10082000D610013C12292E96C04DBBBEE5A783D53C
:100830006A3CE35BB8F25C6D1FA6F31224F6D63B6C
:100840001014090782E8306A99DC95019CD4683B52
:10085000CA9812AB7725157D10324598CD7ADF7195
:100860008A75C11CD46825EBBB54276F2AF7B99849
:100870000327DE24A8BB98C284FF9B51D85350DACB
:10088000F588AA872FAED6EA6BDEC8D7A728658180
:10089000E8B23B1D4F758F9F7A748EC15F9AA89DF9
:1008A000FA03A3719B376DD50BF5E1A11B016AC655
:1008B00067AAEA2C9DA4D26EFCDE2E7F9469E54ADD
:1008C000E001483C6BF71EB60B5FF92E07C5E8AE9A
:1008D000371BBC3CD8D50B919E8024F5060C0E9896
:1008E00007962D19DC5893CCFB4EEBBD0FF5AF01ED
:1008F000FAF17C438CB8563EBE774E2BF7BBB7451A
:1009000047CDCCA64C727B6A2A701307FDB89C9821
:100910003AD823675B34D5140CAB771FF83D5A9F48
:1009200092B72CAD31DE6107B36BF73815954614DD
:100930004853695266076D83718A6725200FFED779
:1009400002D76E2CD21A0A5DFD0F74E3A436079A03
:10095000DFD479BFEF59C04452879A6E1D0EEEDE88
:100960002E1AA98F3AC9BAEC99782D556B14C20684
:10097000D5FC93534D118CF8FA797CA664AE61B81E
:100980007B9456A639789AE5C7DF1863239CFA66EC
:10099000BBB75A274CD1A18322B3524935B0228329
:1009A0005912001698DDADC294F9D37B647F443EA2
:1009B0003C8B9A839C696BE4DF9FED541FE55D7A65
:1009C0000582B3DDEFFC5396B02C5AF8DF9C8B16F2
:1009D0004EDFDA4D090969500365D87370E886BFA8
:1009E000BB35CEB246CB02005BB4E2C68F2F98AFC8
:1009F000874B4845EDCC1DE658D6F250259F52C78F
:100A0000CB8A179D5BE5C8D772B752B2C498E37A18
:100A1000173EC660A797B0CF188153844CD51732C4
:100A2000031339510910E377494F6201BF8C9AE0F3
:100A3000419E897436F996862E961C4AB72B4A97A2
:100A4000BC9940A3E03DC8AD2FDF4F2CC469829F05
:100A50009B810C615CA59D8C89C02CB44A334EEB04
:100A6000A25640C0C246AF6AFC67D1805EC56D84A5
:100A700043273F5515966AA0A5DAB7FFB7756E4CA8
:100A800049919D22A346EAED9A00E232C3D6A971AC
:100A90002055A319EDF84FA7129C6687AF4EB7F00B
:100AA000DBBFEFF0F6AFEADA09FEDE385CA5A2DFC5
:100AB0009945A8E4E792AC67AA4FBF773EA24049A8
:100AC000224A1E3BAA707F95AF374BFC99E2E0BAF1
:100AD000D734CE55885B841B57C4800353C92F93EA
:100AE000044DD596E570A66E635D9D6CDB020AA988
:100AF000DA8B53DCD99AC5942C91922ADEBB8B13E6
:100B0000B9199664CCF26439B77549E986C2866230
:100B1000D924D3813549FCA0A5A0930564B41A5704
:100B2000CE0C900227C57A2B5DAE3ED5DD107C142D
:100B3000EA3A08AC724E903D3B7C862EEBD40670B0
:100B4000E6C7FB5FBD18F411A41A93C3BED9FB26F8
:100B5000482F373CD003471AF76219245CF4A89257
:100B6000207AF29E2AC595A2FBA4EA85D856B770D2
:100B7000D16030A5308270DC7A658A363F5B0CAE7E
:100B8000547CD357847B3A651881EE059B444DB85D
:100B9000DAA2A1C915D373030E43E98E15F9BEC6B7
:100BA000C58AE5C01EC2379E2A26A5A0BD245FB90E
:100BB000C1AB3448B95D98B46518F36319441B118F
:100BC00016FFDCF17908860F529873C492902B4778
:100BD00009D0436C2F20EBDCDAC5087B9442306AE5
:100BE000C7DA8CC376A7A5CC621300603158449B4A
:100BF000F56414F511C5545283D47301160EB37AFB
:100C000029693556D4EE8A17A299249CD78FDB55D3
:100C1000B53EE806E56E630E1CEC06F0E4500BE012
:100C200000D0E56E630E1CEC06F000D000D0000092
:100C3000E450E82EF6D71200E8060000E85007E07E
:100C400000D000D000D000D00000E82EFAD712006B
:100C5000D350FC0B0309D36ED3508F0B7009D36EA6
:100C60000F0EC16E0F01386B0F01396B938AF19E25
:100C7000618A93889386939093928A808A82946AF9
:100C800093948A84E56A160EE56E0C0EE56E28ECE8
:100C90000DF0030EE12681B80ED081B60CD0010E06
:100CA0000001626FE56A160EE56E2E0EE56E28EC09
:100CB0000DF0030EE126949A9498949C949E9AECDD
:100CC0000EF0899689865A0EE56E3A0EE56E5CEC5A
:100CD0000DF0E652E652C80E09EC06F0020EE56E83
:100CE0008CEC0DF0E652030EE56E8CEC0DF0E65246
:100CF000040EE56E8CEC0DF0E652050EE56E8CEC04
:100D00000DF0E652060EE56E8CEC0DF0E652E56A4B
:100D1000150EE56E320EE56E28EC0DF0030EE126A1
:100D200035EC0BF0000EE56A8CEC0DF0006EE6522F
:100D3000330A01E0E8D03F0EE56E8CEC0DF0016E59
:100D4000E6520050011A0150FF0A01E0D2D0150E00
:100D5000E56E130EE56E5CEC0DF0E652E652280EE1
:100D600009EC06F0250EE56E8CEC0DF0016EE652F6
:100D7000260EE56E8CEC0DF0026EE6520150EF0A85
:100D800001E09AD00250BE0A01E096D0010E0001A7
:100D9000606F200EE56E8CEC0DF0036EE652F00EE7
:100DA00003160350E56E200EE56E5CEC0DF0E65286
:100DB000E652000EE56A57EC0EF00001616FE65254
:100DC000010E615D03E3A50E615D2EE3E56A140E7D
:100DD000E56E860EE56E28EC0DF0030EE1260001AF
:100DE0006151E56E91EC0CF0E652E56A140EE56E89
:100DF000AE0EE56E28EC0DF0030EE126440E000168
:100E0000616FE56E000EE56ABAEC0DF0036EE65216
:100E1000E652035009E1E56A140EE56ECC0EE56E6C
:100E200028EC0DF0030EE126E56A140EE56EF60ED1
:100E3000E56E28EC0DF0030EE12600016151E56E30
:100E400091EC0CF0E652E56A150EE56E0E0EE56EBD
:100E500028EC0DF0030EE12600016151E56E0F0E46
:100E6000E56E5CEC0DF0E652E6520F0EE56E8CEC92
:100E70000DF0036EE652E56A150EE56E100EE56E96
:100E800028EC0DF0030EE1260350E56E91EC0CF01A
:100E9000E652E56A150EE56E0E0EE56E28EC0DF0D5
:100EA000030EE126E56A150EE56E520EE56E28EC9E
:100EB0000DF0030EE1263ED0E56A150EE56E6C0ED0
:100EC000E56E28EC0DF0030EE1260250E56E91EC84
:100ED0000CF0E6520150E56E91EC0CF0E652E56A3A
:100EE000150EE56E0E0EE56E28EC0DF0030EE126F4
:100EF00021D0E56A150EE56E7E0EE56E28EC0DF04C
:100F0000030EE12617D0E56A150EE56E960EE56E26
:100F100028EC0DF0030EE1260050E56E91EC0CF08C
:100F2000E652E56A150EE56E0E0EE56E28EC0DF044
:100F3000030EE126E56A150EE56EB00EE56E000EB5
:100F4000E56ADEEC0CF0040EE126E56A150EE56EAE
:100F5000BC0EE56E010EE56EDEEC0CF0040EE12633
:100F6000E56A150EE56EC80EE56E020EE56EDEEC66
:100F70000CF0040EE126E56A150EE56ED00EE56E66
:100F8000240EE56EDEEC0CF0040EE126E56A150E8B
:100F9000E56EDC0EE56E2A0EE56EDEEC0CF0040E5E
:100FA000E126E56A150EE56EE40EE56E0F0EE56EC0
:100FB000DEEC0CF0040EE126E56A150EE56EEE0E91
:100FC000E56E100EE56EDEEC0CF0040EE126E56A2F
:100FD000150EE56EF80EE56E390EE56EDEEC0CF0E2
:100FE000040EE126E56A160EE56E020EE56E2F0E82
:100FF000E56EDEEC0CF0040EE12600016051D8B481
:1010000071D0790E006E000E016E020EE56E8CEC52
:101010000DF0026EE65200C0E9FF01C0EAFF02C017
:10102000EFFF000179AB3DD079BD3BD079AF5AD00D
:10103000030EE56E8CEC0DF0006EE65200C06FF012
:101040000001706B040EE56E8CEC0DF0E652036E41
:10105000026A00016F51006E7051016E0250001063
:101060006F6F03500110706F050EE56E8CEC0DF084
:10107000006EE65200C071F00001726B060EE56E64
:101080008CEC0DF0E652036E026A00017151006EA5
:101090007251016E02500010716F03500110726F97
:1010A00021D0E56A160EE56E5C0EE56E28EC0DF0BB
:1010B000030EE126790E006E000E016E00C0E9FFFE
:1010C00001C0EAFFEFCF00F00050E56E91EC0CF0AC
:1010D000E652E56A150EE56E0E0EE56E28EC0DF093
:1010E000030EE12600016251D8B4A7D0000E016EB4
:1010F000710E006E800E026E000E046E6F0E036E97
:10110000800E056E03C006F004C007F005C008F0AD
:101110000001735117E103C0E9FF04C0F3FF05505C
:101120000CEC0EF0096EF3CF0AF0094A0A2A09C046
:10113000E5FF0AC0F4FF03C0E9FF04C0F3FF055058
:1011400072EC0EF000017351010A17E100C0E9FFD3
:1011500001C0F3FF02500CEC0EF0036EF3CF04F06D
:10116000034A042A03C0E5FF04C0F4FF00C0E9FFFE
:1011700001C0F3FF025072EC0EF000017351020A3D
:1011800018E106C0E9FF07C0F3FF08500CEC0EF0B1
:10119000036EF3CF04F0FF0E0326042203C0E5FF25
:1011A00004C0F4FF06C0E9FF07C0F3FF085072EC6B
:1011B0000EF000017351030A18E100C0E9FF01C0FD
:1011C000F3FF02500CEC0EF0036EF3CF04F0FF0EB1
:1011D0000326042203C0E5FF04C0F4FF00C0E9FFBA
:1011E00001C0F3FF025072EC0EF0240E09EC06F081
:1011F0000001742B640E745D20E3746B0001735165
:10120000006E002A070E0014736FE56A160EE56E75
:101210003C0EE56E28EC0DF0030EE1260001735143
:10122000E56E91EC0CF0E652E56A150EE56E0E0ED9
:10123000E56E28EC0DF0030EE12600016F517011F0
:1012400005E1000171517211D8B47CD000017051D8
:10125000800F800F02E1010E6F5D0BE3FF0E0001B6
:101260006F27702300017551006E002A030E0014D1
:10127000756FD880000170AFD8900AE36F3F01D03E
:10128000702B00017551006E030E00260014756F5F
:1012900000017251800F800F02E1010E715D0BE3BE
:1012A000FF0E00017127722300017651006E002AA3
:1012B000030E0014766FD880000172AFD8900AE355
:1012C000713F01D0722B00017651006E030E002693
:1012D0000014766F76C000F075C001F0015003E194
:1012E0008B9A8B9C11D00150010A03E18B8A8B9C55
:1012F0000BD00150020A03E18B8A8B8C05D0015080
:10130000030A02E18B9A8B8C005003E18B988B9E31
:1013100011D00050010A03E18B888B9E0BD0005046
:10132000020A03E18B888B8E05D00050030A02E18C
:101330008B988B8EE56A960EE56EE4EC0DF0E65226
:10134000E6527BD781BA87D000016051D8B483D0F0
:10135000006A0001775116E181B809D0A40E00019E
:10136000615D05E2612B010E006E0001776F81B6B1
:1013700009D0020E0001615D05E36107010E006EF8
:101380000001776F016A81B6012A0150010A08E164
:10139000016A81B8012A0150010A02E10001776B5C
:1013A0000050D8B42AD6E56A160EE56E480EE56EF2
:1013B00028EC0DF0030EE12600016151E56E91EC81
:1013C0000CF0E652E56A150EE56E0E0EE56E28ECA1
:1013D0000DF0030EE12600016151E56E0F0EE56E82
:1013E0005CEC0DF0E652E65200016151E56E000E34
:1013F000E56ABAEC0DF0006EE652E652005009E1E3
:10140000E56A140EE56ECC0EE56E28EC0DF0030EC9
:10141000E126900E09EC06F00F0EE56E8CEC0DF057
:10142000006EE652E56A150EE56E100EE56E28ECCC
:101430000DF0030EE1260050E56E91EC0CF0E65243
:10144000E56A150EE56E0E0EE56E28EC0DF0030E46
:10145000E126FDEF07F0006A81B8002A0050010A7A
:1014600002E18A8001D08A90006A81B6002A005089
:10147000010A03E18A82FDEF07F08A92FDEF07F08F
:10148000120089961200496E76616C69642063616E
:101490006C6962726174696F6E2076616C7565202B
:1014A000696E20454550524F4D20307800002E2067
:1014B000736176696E672064656661756C74207609
:1014C000616C756520307834340A000043616E2702
:1014D000742073746F72652063616C6962726174E9
:1014E000696F6E2076616C756520696E2045455088
:1014F000524F4D2E0A0053657474696E6720585917
:10150000207265736F6C7574696F6E3A20000A0003
:101510005859207265736F6C7574696F6E207265AF
:1015200061642066726F6D2041444E533A203078DA
:10153000000041444E53393830302055706C6F6193
:1015400064696E67206669726D776172652E2E2EF2
:101550000A004F70746963616C20436869702049A8
:101560006E697469616C697A65640A0053524F4D03
:1015700020435243206572726F723A307800507285
:101580006F647563742049442074657374206661C8
:10159000696C65640A00496E76616C6964205072FA
:1015A0006F647563742049443A003A203078000033
:1015B00050726F6475637420494400005265766907
:1015C00073696F6E204944004D6F74696F6E00003F
:1015D0004F62736572766174696F6E0053524F4D3E
:1015E00020494400436F6E66696720490000436FDD
:1015F0006E66696720494900436F6E6669672049D6
:101600005600436F6E66696720560000416D69673A
:1016100061204D6F75736520647269766572203143
:101620002E312062792067707337390A00004465D3
:101630006D6F206D6F6465204F4E0A0044656D6FBD
:1016400020706861736520004E65772058592072BC
:1016500065736F6C7574696F6E3A00004572726FD6
:10166000723A6D6F74696F6E3D0000C0E5FF01C096
:10167000E5FF02C0E5FF03C0E5FF04C0E5FF020E81
:10168000E56E390EE56E5CEC0DF0E652E6521D0E8D
:10169000E56E130EE56E5CEC0DF0E652E652280E98
:1016A00009EC06F0180EE56E130EE56E5CEC0DF01D
:1016B000E652E6528996E20EE56EA3EC0BF0E65296
:1016C000E56A0F0EE56EE4EC0DF0E652E652006AB4
:1016D000016A0B0E015C02E1FE0E005C1AE2140EC0
:1016E0000024026E000E0120036E046A000E042224
:1016F00002C0F6FF03C0F7FF04C0F8FF0900F5CFF2
:1017000002F00250E56EA3EC0BF0E652004A012A0B
:10171000E0D7E56A020EE56EE4EC0DF0E652E65223
:101720008986E56AC80EE56EE4EC0DF0E652E652F5
:10173000E4CF04F0E4CF03F0E4CF02F0E4CF01F013
:10174000E4CF00F01200D9CFE5FFE1CFD9FF00C010
:10175000E5FF01C0E5FF02C0E5FF03C0E5FF04C0EF
:10176000E5FF05C0E5FF020EDBCF00F0016A080EC1
:10177000026E025029E0899200AE04D0010E036E81
:10178000046A02D0036A046A0350010BF46E8950A4
:10179000FE0BF410896E0050036E0344FE0B006EC6
:1017A0000150036E0344FE0B046E80B403D0036A41
:1017B000056A03D0010E036E056A03500410016E22
:1017C000898200000206D5D70150E4CF05F0E4CFAE
:1017D00004F0E4CF03F0E4CF02F0E4CF01F0E4CF73
:1017E00000F0E4CFD9FF120011EEFFF021EEFFF080
:1017F000F86AA68EA69C260EF66E1D0EF76E000EDB
:10180000F86E0900F5CF05F00900F5CF06F034D0E9
:101810000900F5CF00F00900F5CF01F00900F5CF80
:1018200002F009000900F5CFE9FF0900F5CFEAFF52
:10183000090009000900F5CF03F00900F5CF04F015
:1018400009000900F6CF07F0F7CF08F0F8CF09F04C
:1018500000C0F6FF01C0F7FF02C0F8FF03D0090087
:10186000F5CFEEFF0306FBE20406F9E207C0F6FF40
:1018700008C0F7FF09C0F8FF0506CAE20606C8E27D
:1018800028EC06F0FFD7D9CFE5FFE1CFD9FF00C0A4
:10189000E5FF01C0E5FF02C0E5FF03C0E5FF020E62
:1018A000DBCF00F08A94270E1CEC06F0000000004D
:1018B00000000000000000000000016A080E015C4A
:1018C0001CE200A004D0010E026E036A02D0026A7C
:1018D000036A0250010BE844E844F46E8A50FB0BA3
:1018E000F4108A6ED8900032270E1CEC06F000002F
:1018F000000000000000012AE1D7010E1CEC06F0F8
:10190000000000008A84240E1CEC06F0E4CF03F0F3
:10191000E4CF02F0E4CF01F0E4CF00F0E4CFD9FF50
:101920001200D9CFE5FFE1CFD9FF00C0E5FF01C02C
:10193000E5FF02C0E5FF03C0E5FF020EDBCF00F0CC
:1019400000380F0B016E026A036A040E0126000EB6
:101950000222E86A032201C0F6FF02C0F7FF03C0BB
:10196000F8FF0900F5CF01F00150E56E43EC0CF0F3
:10197000E652016A0F0E0016026A01BE0268040EEA
:101980000026000E0122E86A022200C0F6FF01C014
:10199000F7FF02C0F8FF0900F5CF00F00050E56E38
:1019A00043EC0CF0E652E4CF03F0E4CF02F0E4CFD6
:1019B00001F0E4CF00F0E4CFD9FF1200D9CFE5FF6A
:1019C000E1CFD9FF00C0E5FF01C0E5FF02C0E5FFA0
:1019D00003C0E5FF020EDBCF00F0030EDBCF01F00A
:1019E000040EDBCF02F0050EDBCF03F00050E56EF6
:1019F0008CEC0DF0006EE6520350E56E0250E56E81
:101A00000150E56E28EC0DF0030EE126E56A150E97
:101A1000E56EAA0EE56E28EC0DF0030EE1260050EF
:101A2000E56E91EC0CF0E652E56A150EE56E0E0ED1
:101A3000E56E28EC0DF0030EE126E4CF03F0E4CFD1
:101A400002F0E4CF01F0E4CF00F0E4CFD9FF1200C0
:101A5000D9CFE5FFE1CFD9FF00C0E5FF01C0E5FF29
:101A600002C0E5FF03C0E5FF020EDBCF00F0030E6E
:101A7000DBCF01F0040EDBCF02F000C0E9FF01C0B4
:101A8000F3FF025036EC0EF0036E03500AE00350F1
:101A9000E56E43EC0CF0E652002AEFE3014A022A1D
:101AA000ECD7E4CF03F0E4CF02F0E4CF01F0E4CFD1
:101AB00000F0E4CFD9FF1200D9CFE5FFE1CFD9FF85
:101AC00000C0E5FF01C0E5FF020EDBCF00F0030E12
:101AD000DBCF01F08996008E0050E56EA3EC0BF091
:101AE000E6520150E56EA3EC0BF0E652E56A140EE7
:101AF000E56EE4EC0DF0E652E6528986E56A640E86
:101B0000E56EE4EC0DF0E652E652E4CF01F0E4CFEE
:101B100000F0E4CFD9FF1200D9CFE5FFE1CFD9FF24
:101B200000C0E5FF020EDBCF00F08996009E00505A
:101B3000E56EA3EC0BF0E652000EE56E640EE56E6A
:101B4000E4EC0DF0E652E652000EE56EA3EC0BF06D
:101B5000006EE65200008986000EE56E130EE56EFB
:101B6000E4EC0DF0E652E6520050E4CF00F0E4CF92
:101B7000D9FF1200D9CFE5FFE1CFD9FF00C0E5FFC3
:101B800001C0E5FF020EDBCF00F0030EDBCFA8FFA4
:101B9000010E016E00C0A9FFA69EA69CA684F29E1F
:101BA000550EA76EAA0EA76EA682F28EA6B2FED71B
:101BB000A6A601D0016AA6940150E4CF01F0E4CFBB
:101BC00000F0E4CFD9FF1200D9CFE5FFE1CFD9FF74
:101BD00000C0E5FF01C0E5FF020EDBCF00F0030E01
:101BE000DBCF01F0F60E0026D8A001060150800FD1
:101BF000800F02E1010E005C08E30000000000001D
:101C0000FC0E0026D8A00106F1D7E4CF01F0E4CF06
:101C100000F0E4CFD9FF1200E8AE06D0F3CFEAFF20
:101C2000EE50EECFF3FF1200E8BCA2EF0EF0E9CFCA
:101C3000F6FFF3CFF7FFF86E0900F5500900F5CF76
:101C4000F3FF1200F2CFEAFFF29EA69EA69CA684A6
:101C5000E9CFA9FFE4CFA8FF8BEC0EF0F4CFA8FFEB
:101C60008BEC0EF0A694EABEF28E1200E8AE04D021
:101C7000F3CFEAFFEE501200E8BCA0EF0EF0E9CF80
:101C8000F6FFF3CFF7FFF86E0900F5501200F2CF20
:101C9000F6FFF29EA69EA69CE9CFA9FFA680A850BB
:101CA000A92AA680A8CFF3FFF6BEF28E1200D9CFE4
:101CB000E5FFE1CFD9FF020EDBCFA9FFA69CA69ED0
:101CC000A680A850E4CFD9FF120000000000000059
:101CD0000000000000000000000000000000000004
:101CE00000000000E8AE07D0F3CFEAFFE4CFEEFF3C
:101CF000F4CFEEFF1200E8BCA4EF0EF01200F2CF1A
:101D0000F6FFF29EA69EA69CE9CFA9FFA680A8504A
:101D1000F6BEF28E1200550EA76EAA0EA76EA68210
:101D2000A6B2FED7A94A0100CA1C0000600000004C
:101D300019000000929692849290929289861200E5
:0C1D40007FEF0EF047EF0EF022EF0EF0E8
:020000040030CA
:0E0000000029073C00BF850003C003E0034059
:00000001FF
